{
  "contractName": "ExerciseC6A",
  "abi": [
    {
      "inputs": [],
      "payable": false,
      "stateMutability": "nonpayable",
      "type": "constructor"
    },
    {
      "constant": true,
      "inputs": [
        {
          "name": "account",
          "type": "address"
        }
      ],
      "name": "isUserRegistered",
      "outputs": [
        {
          "name": "",
          "type": "bool"
        }
      ],
      "payable": false,
      "stateMutability": "view",
      "type": "function"
    },
    {
      "constant": true,
      "inputs": [],
      "name": "isOperational",
      "outputs": [
        {
          "name": "",
          "type": "bool"
        }
      ],
      "payable": false,
      "stateMutability": "view",
      "type": "function"
    },
    {
      "constant": false,
      "inputs": [
        {
          "name": "account",
          "type": "address"
        },
        {
          "name": "isAdmin",
          "type": "bool"
        }
      ],
      "name": "registerUser",
      "outputs": [],
      "payable": false,
      "stateMutability": "nonpayable",
      "type": "function"
    },
    {
      "constant": false,
      "inputs": [
        {
          "name": "mode",
          "type": "bool"
        }
      ],
      "name": "setOperatingStatus",
      "outputs": [],
      "payable": false,
      "stateMutability": "nonpayable",
      "type": "function"
    }
  ],
  "bytecode": "0x60806040526001600260006101000a81548160ff021916908315150217905550600060405190808252806020026020018201604052801561004f5781602001602082028038833980820191505090505b50600390805190602001906100659291906100b8565b5034801561007257600080fd5b50336000806101000a81548173ffffffffffffffffffffffffffffffffffffffff021916908373ffffffffffffffffffffffffffffffffffffffff160217905550610185565b828054828255906000526020600020908101928215610131579160200282015b828111156101305782518260006101000a81548173ffffffffffffffffffffffffffffffffffffffff021916908373ffffffffffffffffffffffffffffffffffffffff160217905550916020019190600101906100d8565b5b50905061013e9190610142565b5090565b61018291905b8082111561017e57600081816101000a81549073ffffffffffffffffffffffffffffffffffffffff021916905550600101610148565b5090565b90565b610aeb806101946000396000f3fe608060405260043610610062576000357c0100000000000000000000000000000000000000000000000000000000900463ffffffff168063110466ed14610067578063163f7522146100a4578063951faf001461010d578063cd905dff1461016a575b600080fd5b34801561007357600080fd5b506100a26004803603602081101561008a57600080fd5b81019080803515159060200190929190505050610199565b005b3480156100b057600080fd5b506100f3600480360360208110156100c757600080fd5b81019080803573ffffffffffffffffffffffffffffffffffffffff1690602001909291905050506105e5565b604051808215151515815260200191505060405180910390f35b34801561011957600080fd5b506101686004803603604081101561013057600080fd5b81019080803573ffffffffffffffffffffffffffffffffffffffff169060200190929190803515159060200190929190505050610708565b005b34801561017657600080fd5b5061017f6109db565b604051808215151515815260200191505060405180910390f35b6000809054906101000a900473ffffffffffffffffffffffffffffffffffffffff1673ffffffffffffffffffffffffffffffffffffffff163373ffffffffffffffffffffffffffffffffffffffff1614151561025d576040517f08c379a000000000000000000000000000000000000000000000000000000000815260040180806020018281038252601c8152602001807f43616c6c6572206973206e6f7420636f6e7472616374206f776e65720000000081525060200191505060405180910390fd5b600260009054906101000a900460ff1615158115151415151561030e576040517f08c379a000000000000000000000000000000000000000000000000000000000815260040180806020018281038252602d8152602001807f4e6577206d6f6465206d75737420626520646966666572656e742066726f6d2081526020017f6578697374696e67206d6f64650000000000000000000000000000000000000081525060400191505060405180910390fd5b600160003373ffffffffffffffffffffffffffffffffffffffff1673ffffffffffffffffffffffffffffffffffffffff16815260200190815260200160002060000160019054906101000a900460ff1615156103d2576040517f08c379a00000000000000000000000000000000000000000000000000000000081526004018080602001828103825260168152602001807f43616c6c6572206973206e6f7420616e2061646d696e0000000000000000000081525060200191505060405180910390fd5b600080905060008090505b60038054905081101561046d573373ffffffffffffffffffffffffffffffffffffffff1660038281548110151561041057fe5b9060005260206000200160009054906101000a900473ffffffffffffffffffffffffffffffffffffffff1673ffffffffffffffffffffffffffffffffffffffff161415610460576001915061046d565b80806001019150506103dd565b508015151561050a576040517f08c379a00000000000000000000000000000000000000000000000000000000081526004018080602001828103825260288152602001807f43616c6c65722068617320616c72656164792063616c6c65642074686973206681526020017f756e6374696f6e2e00000000000000000000000000000000000000000000000081525060400191505060405180910390fd5b60033390806001815401808255809150509060018203906000526020600020016000909192909190916101000a81548173ffffffffffffffffffffffffffffffffffffffff021916908373ffffffffffffffffffffffffffffffffffffffff1602179055505060026003805490501015156105e15781600260006101000a81548160ff02191690831515021790555060006040519080825280602002602001820160405280156105c95781602001602082028038833980820191505090505b50600390805190602001906105df9291906109f2565b505b5050565b60008073ffffffffffffffffffffffffffffffffffffffff168273ffffffffffffffffffffffffffffffffffffffff16141515156106b1576040517f08c379a00000000000000000000000000000000000000000000000000000000081526004018080602001828103825260228152602001807f276163636f756e7427206d75737420626520612076616c69642061646472657381526020017f732e00000000000000000000000000000000000000000000000000000000000081525060400191505060405180910390fd5b600160008373ffffffffffffffffffffffffffffffffffffffff1673ffffffffffffffffffffffffffffffffffffffff16815260200190815260200160002060000160009054906101000a900460ff169050919050565b600260009054906101000a900460ff1615156107b2576040517f08c379a00000000000000000000000000000000000000000000000000000000081526004018080602001828103825260258152602001807f436f6e74726163742069732063757272656e746c79206e6f74206f706572617481526020017f696f6e616c00000000000000000000000000000000000000000000000000000081525060400191505060405180910390fd5b6000809054906101000a900473ffffffffffffffffffffffffffffffffffffffff1673ffffffffffffffffffffffffffffffffffffffff163373ffffffffffffffffffffffffffffffffffffffff16141515610876576040517f08c379a000000000000000000000000000000000000000000000000000000000815260040180806020018281038252601c8152602001807f43616c6c6572206973206e6f7420636f6e7472616374206f776e65720000000081525060200191505060405180910390fd5b600160008373ffffffffffffffffffffffffffffffffffffffff1673ffffffffffffffffffffffffffffffffffffffff16815260200190815260200160002060000160009054906101000a900460ff1615151561093b576040517f08c379a000000000000000000000000000000000000000000000000000000000815260040180806020018281038252601b8152602001807f5573657220697320616c726561647920726567697374657265642e000000000081525060200191505060405180910390fd5b6040805190810160405280600115158152602001821515815250600160008473ffffffffffffffffffffffffffffffffffffffff1673ffffffffffffffffffffffffffffffffffffffff16815260200190815260200160002060008201518160000160006101000a81548160ff02191690831515021790555060208201518160000160016101000a81548160ff0219169083151502179055509050505050565b6000600260009054906101000a900460ff16905090565b828054828255906000526020600020908101928215610a6b579160200282015b82811115610a6a5782518260006101000a81548173ffffffffffffffffffffffffffffffffffffffff021916908373ffffffffffffffffffffffffffffffffffffffff16021790555091602001919060010190610a12565b5b509050610a789190610a7c565b5090565b610abc91905b80821115610ab857600081816101000a81549073ffffffffffffffffffffffffffffffffffffffff021916905550600101610a82565b5090565b9056fea165627a7a72305820d4f5b37a92c76aeb250c7b403be69a4419dda246424c343fba2b5b4333362b070029",
  "source": "pragma solidity >=0.4.21 <0.6.0;\n\ncontract ExerciseC6A {\n\n    /********************************************************************************************/\n    /*                                       DATA VARIABLES                                     */\n    /********************************************************************************************/\n\n   uint256 constant M =2;\n   \n    struct UserProfile {\n        bool isRegistered;\n        bool isAdmin;\n    }\n\n    address private contractOwner;                  // Account used to deploy contract\n    mapping(address => UserProfile) userProfiles;   // Mapping for storing user profiles\n\n\n    bool private operational = true; \n    address[] multiCalls = new address[](0);\n    /********************************************************************************************/\n    /*                                       EVENT DEFINITIONS                                  */\n    /********************************************************************************************/\n\n    // No events\n\n    /**\n    * @dev Constructor\n    *      The deploying account becomes contractOwner\n    */\n    constructor\n                                (\n                                ) \n                                public \n    {\n        contractOwner = msg.sender;\n    }\n\n    /********************************************************************************************/\n    /*                                       FUNCTION MODIFIERS                                 */\n    /********************************************************************************************/\n\n    // Modifiers help avoid duplication of code. They are typically used to validate something\n    // before a function is allowed to be executed.\n\n    /**\n    * @dev Modifier that requires the \"ContractOwner\" account to be the function caller\n    */\n    modifier requireContractOwner()\n    {\n        require(msg.sender == contractOwner, \"Caller is not contract owner\");\n        _;\n    }\n\n\n     /**\n    * @dev Modifier that requires the \"operational\" boolean variable to be \"true\"\n    *      This is used on all state changing functions to pause the contract in \n    *      the event there is an issue that needs to be fixed\n    */\n    modifier requireIsOperational() \n    {\n        require(operational, \"Contract is currently not operational\");\n        _;  // All modifiers require an \"_\" which indicates where the function body will be added\n    }\n\n\n    /********************************************************************************************/\n    /*                                       UTILITY FUNCTIONS                                  */\n    /********************************************************************************************/\n\n   /**\n    * @dev Check if a user is registered\n    *\n    * @return A bool that indicates if the user is registered\n    */   \n    function isUserRegistered\n                            (\n                                address account\n                            )\n                            external\n                            view\n                            returns(bool)\n    {\n        require(account != address(0), \"'account' must be a valid address.\");\n        return userProfiles[account].isRegistered;\n    }\n\n     /**\n    * @dev Get operating status of contract\n    *\n    * @return A bool that is the current operating status\n    */      \n    function isOperational() \n                            public \n                            view \n                            returns(bool) \n    {\n        return operational;\n    }\n\n\n\n    /********************************************************************************************/\n    /*                                     SMART CONTRACT FUNCTIONS                             */\n    /********************************************************************************************/\n\n    function registerUser\n                                (\n                                    address account,\n                                    bool isAdmin\n                                )\n                                external\n                                requireIsOperational\n                                requireContractOwner\n    {\n        require(!userProfiles[account].isRegistered, \"User is already registered.\");\n\n        userProfiles[account] = UserProfile({\n                                                isRegistered: true,\n                                                isAdmin: isAdmin\n                                            });\n    }\n    /**\n    * @dev Sets contract operations on/off\n    *\n    * When operational mode is disabled, all write transactions except for this one will fail\n    */    \n    function setOperatingStatus\n                            (\n                                bool mode\n                            ) \n                            external\n                     \n                      \n                            requireContractOwner \n    {\n       require(mode != operational, \"New mode must be different from existing mode\");\n        require(userProfiles[msg.sender].isAdmin, \"Caller is not an admin\");\n      \n        bool isDuplicate = false;\n        // To Avoid double call\n        \n        for(uint c=0; c<multiCalls.length; c++) {\n            if (multiCalls[c] == msg.sender) {\n                isDuplicate = true;\n                break;\n            }\n        }\n        //this require some cost\n        require(!isDuplicate, \"Caller has already called this function.\");\n\n        multiCalls.push(msg.sender);\n        if (multiCalls.length >= M) {\n            operational = mode;      \n            multiCalls = new address[](0);      \n        }\n\n     //  dont need requireIsOperational modifier in setOperatingStatus function => because of lockout bug\n    }\n}\n\n",
  "sourcePath": "/Users/dipti/repos/Blockchain/BlockchainExercises/ExerciseC6A/contracts/ExerciseC6A.sol",
  "compiler": {
    "name": "solc",
    "version": "0.5.0+commit.1d4f565a.Emscripten.clang"
  },
  "schemaVersion": "3.0.1",
  "updatedAt": "2022-05-26T01:40:27.953Z",
  "devdoc": {
    "methods": {
      "constructor": {
        "details": "Constructor     The deploying account becomes contractOwner"
      },
      "isOperational()": {
        "details": "Get operating status of contract",
        "return": "A bool that is the current operating status"
      },
      "isUserRegistered(address)": {
        "details": "Check if a user is registered",
        "return": "A bool that indicates if the user is registered"
      },
      "setOperatingStatus(bool)": {
        "details": "Sets contract operations on/off    * When operational mode is disabled, all write transactions except for this one will fail"
      }
    }
  },
  "userdoc": {
    "methods": {
      "registerUser(address,bool)": {
        "notice": "*****************************************************************************************"
      }
    }
  }
}