{
  "contractName": "ExerciseC6CApp",
  "abi": [
    {
      "inputs": [],
      "payable": false,
      "stateMutability": "nonpayable",
      "type": "constructor"
    },
    {
      "constant": false,
      "inputs": [
        {
          "name": "id",
          "type": "string"
        },
        {
          "name": "amount",
          "type": "uint256"
        }
      ],
      "name": "addSale",
      "outputs": [],
      "payable": false,
      "stateMutability": "nonpayable",
      "type": "function"
    }
  ],
  "bytecode": "0x608060405234801561001057600080fd5b50336000806101000a81548173ffffffffffffffffffffffffffffffffffffffff021916908373ffffffffffffffffffffffffffffffffffffffff16021790555061037c806100606000396000f300608060405260043610610041576000357c0100000000000000000000000000000000000000000000000000000000900463ffffffff1680635cd25e5314610046575b600080fd5b34801561005257600080fd5b506100896004803603810190808035906020019082018035906020019190919293919293908035906020019092919050505061008b565b005b6000809054906101000a900473ffffffffffffffffffffffffffffffffffffffff1673ffffffffffffffffffffffffffffffffffffffff163373ffffffffffffffffffffffffffffffffffffffff1614151561014f576040517f08c379a000000000000000000000000000000000000000000000000000000000815260040180806020018281038252601c8152602001807f43616c6c6572206973206e6f7420636f6e7472616374206f776e65720000000081525060200191505060405180910390fd5b61019483838080601f0160208091040260200160405190810160405280939291908181526020018383808284378201915050505050508261018f84610199565b6102fd565b505050565b60008060009054906101000a900473ffffffffffffffffffffffffffffffffffffffff1673ffffffffffffffffffffffffffffffffffffffff163373ffffffffffffffffffffffffffffffffffffffff1614151561025f576040517f08c379a000000000000000000000000000000000000000000000000000000000815260040180806020018281038252601c8152602001807f43616c6c6572206973206e6f7420636f6e7472616374206f776e65720000000081525060200191505060405180910390fd5b60648210156102965761028f606461028160058561030290919063ffffffff16565b61033a90919063ffffffff16565b90506102f8565b6101f48210156102ce576102c760646102b960078561030290919063ffffffff16565b61033a90919063ffffffff16565b90506102f8565b6102f560646102e7600a8561030290919063ffffffff16565b61033a90919063ffffffff16565b90505b919050565b505050565b6000808314156103155760009050610334565b818302905081838281151561032657fe5b0414151561033057fe5b8090505b92915050565b6000818381151561034757fe5b049050929150505600a165627a7a723058202506995c2a0948dfae8ce89d434cc7ba129139c00d2d6214268874e33bc7eabe0029",
  "source": "pragma solidity ^0.4.25;\n\n// It's important to avoid vulnerabilities due to numeric overflow bugs\n// OpenZeppelin's SafeMath library, when used correctly, protects agains such bugs\n// More info: https://www.nccgroup.trust/us/about-us/newsroom-and-events/blog/2018/november/smart-contract-insecurity-bad-arithmetic/\n\nimport \"../../node_modules/openzeppelin-solidity/contracts/math/SafeMath.sol\";\n\n\ncontract ExerciseC6CApp {\n    using SafeMath for uint256; // Allow SafeMath functions to be called for all uint256 types (similar to \"prototype\" in Javascript)\n\n\n    address private contractOwner;              // Account used to deploy contract\n\n    modifier requireContractOwner()\n    {\n        require(msg.sender == contractOwner, \"Caller is not contract owner\");\n        _;\n    }\n    \n    constructor\n                                (\n                                ) \n                                public \n    {\n        contractOwner = msg.sender;\n    }\n\n    function calculateBonus\n                            (\n                                uint256 sales\n                            )\n                            internal\n                            view\n                            requireContractOwner\n                            returns(uint256)\n    {\n        if (sales < 100) {\n            return sales.mul(5).div(100);\n        }\n        else if (sales < 500) {\n            return sales.mul(7).div(100);\n        }\n        else {\n            return sales.mul(10).div(100);\n        }\n    }\n\n    function addSale\n                                (\n                                    string id,\n                                    uint256 amount\n                                )\n                                external\n                                requireContractOwner\n    {\n        updateEmployee(\n                        id,\n                        amount,\n                        calculateBonus(amount)\n        );\n    }\n\n    function updateEmployee\n                                (\n                                    string id,\n                                    uint256 sales,\n                                    uint256 bonus\n\n                                )\n                                internal\n                                {\n                                    \n                                }\n\n}\n\n",
  "sourcePath": "/Users/dipti/repos/Blockchain/BlockchainExercises/ExerciseC-smartContractUpgradibility/contracts/ExerciseC6C/ExerciseC6CApp.sol",
  "compiler": {
    "name": "solc",
    "version": "0.4.26+commit.4563c3fc.Emscripten.clang"
  },
  "schemaVersion": "3.0.1",
  "updatedAt": "2022-05-30T21:22:32.441Z",
  "devdoc": {
    "methods": {}
  },
  "userdoc": {
    "methods": {}
  }
}